{
  "address": "0xE02071cdB40703029ABCA0412fF9195B45efC867",
  "abi": [
    {
      "inputs": [
        {
          "internalType": "string",
          "name": "_highSvg",
          "type": "string"
        },
        {
          "internalType": "string",
          "name": "_lowSvg",
          "type": "string"
        },
        {
          "internalType": "address",
          "name": "_priceFeedAddress",
          "type": "address"
        },
        {
          "internalType": "int256",
          "name": "_highValue",
          "type": "int256"
        }
      ],
      "stateMutability": "nonpayable",
      "type": "constructor"
    },
    {
      "anonymous": false,
      "inputs": [
        {
          "indexed": true,
          "internalType": "address",
          "name": "owner",
          "type": "address"
        },
        {
          "indexed": true,
          "internalType": "address",
          "name": "approved",
          "type": "address"
        },
        {
          "indexed": true,
          "internalType": "uint256",
          "name": "tokenId",
          "type": "uint256"
        }
      ],
      "name": "Approval",
      "type": "event"
    },
    {
      "anonymous": false,
      "inputs": [
        {
          "indexed": true,
          "internalType": "address",
          "name": "owner",
          "type": "address"
        },
        {
          "indexed": true,
          "internalType": "address",
          "name": "operator",
          "type": "address"
        },
        {
          "indexed": false,
          "internalType": "bool",
          "name": "approved",
          "type": "bool"
        }
      ],
      "name": "ApprovalForAll",
      "type": "event"
    },
    {
      "anonymous": false,
      "inputs": [
        {
          "indexed": true,
          "internalType": "address",
          "name": "from",
          "type": "address"
        },
        {
          "indexed": true,
          "internalType": "address",
          "name": "to",
          "type": "address"
        },
        {
          "indexed": true,
          "internalType": "uint256",
          "name": "tokenId",
          "type": "uint256"
        }
      ],
      "name": "Transfer",
      "type": "event"
    },
    {
      "inputs": [
        {
          "internalType": "address",
          "name": "to",
          "type": "address"
        },
        {
          "internalType": "uint256",
          "name": "tokenId",
          "type": "uint256"
        }
      ],
      "name": "approve",
      "outputs": [],
      "stateMutability": "nonpayable",
      "type": "function"
    },
    {
      "inputs": [
        {
          "internalType": "address",
          "name": "owner",
          "type": "address"
        }
      ],
      "name": "balanceOf",
      "outputs": [
        {
          "internalType": "uint256",
          "name": "",
          "type": "uint256"
        }
      ],
      "stateMutability": "view",
      "type": "function"
    },
    {
      "inputs": [
        {
          "internalType": "uint256",
          "name": "tokenId",
          "type": "uint256"
        }
      ],
      "name": "getApproved",
      "outputs": [
        {
          "internalType": "address",
          "name": "",
          "type": "address"
        }
      ],
      "stateMutability": "view",
      "type": "function"
    },
    {
      "inputs": [],
      "name": "i_highValue",
      "outputs": [
        {
          "internalType": "int256",
          "name": "",
          "type": "int256"
        }
      ],
      "stateMutability": "view",
      "type": "function"
    },
    {
      "inputs": [],
      "name": "i_priceFeed",
      "outputs": [
        {
          "internalType": "contract AggregatorV3Interface",
          "name": "",
          "type": "address"
        }
      ],
      "stateMutability": "view",
      "type": "function"
    },
    {
      "inputs": [
        {
          "internalType": "address",
          "name": "owner",
          "type": "address"
        },
        {
          "internalType": "address",
          "name": "operator",
          "type": "address"
        }
      ],
      "name": "isApprovedForAll",
      "outputs": [
        {
          "internalType": "bool",
          "name": "",
          "type": "bool"
        }
      ],
      "stateMutability": "view",
      "type": "function"
    },
    {
      "inputs": [],
      "name": "mintNFT",
      "outputs": [],
      "stateMutability": "nonpayable",
      "type": "function"
    },
    {
      "inputs": [],
      "name": "name",
      "outputs": [
        {
          "internalType": "string",
          "name": "",
          "type": "string"
        }
      ],
      "stateMutability": "view",
      "type": "function"
    },
    {
      "inputs": [
        {
          "internalType": "uint256",
          "name": "tokenId",
          "type": "uint256"
        }
      ],
      "name": "ownerOf",
      "outputs": [
        {
          "internalType": "address",
          "name": "",
          "type": "address"
        }
      ],
      "stateMutability": "view",
      "type": "function"
    },
    {
      "inputs": [],
      "name": "s_highImageURI",
      "outputs": [
        {
          "internalType": "string",
          "name": "",
          "type": "string"
        }
      ],
      "stateMutability": "view",
      "type": "function"
    },
    {
      "inputs": [],
      "name": "s_lowImageURI",
      "outputs": [
        {
          "internalType": "string",
          "name": "",
          "type": "string"
        }
      ],
      "stateMutability": "view",
      "type": "function"
    },
    {
      "inputs": [],
      "name": "s_tokenCounter",
      "outputs": [
        {
          "internalType": "uint256",
          "name": "",
          "type": "uint256"
        }
      ],
      "stateMutability": "view",
      "type": "function"
    },
    {
      "inputs": [
        {
          "internalType": "address",
          "name": "from",
          "type": "address"
        },
        {
          "internalType": "address",
          "name": "to",
          "type": "address"
        },
        {
          "internalType": "uint256",
          "name": "tokenId",
          "type": "uint256"
        }
      ],
      "name": "safeTransferFrom",
      "outputs": [],
      "stateMutability": "nonpayable",
      "type": "function"
    },
    {
      "inputs": [
        {
          "internalType": "address",
          "name": "from",
          "type": "address"
        },
        {
          "internalType": "address",
          "name": "to",
          "type": "address"
        },
        {
          "internalType": "uint256",
          "name": "tokenId",
          "type": "uint256"
        },
        {
          "internalType": "bytes",
          "name": "_data",
          "type": "bytes"
        }
      ],
      "name": "safeTransferFrom",
      "outputs": [],
      "stateMutability": "nonpayable",
      "type": "function"
    },
    {
      "inputs": [
        {
          "internalType": "address",
          "name": "operator",
          "type": "address"
        },
        {
          "internalType": "bool",
          "name": "approved",
          "type": "bool"
        }
      ],
      "name": "setApprovalForAll",
      "outputs": [],
      "stateMutability": "nonpayable",
      "type": "function"
    },
    {
      "inputs": [
        {
          "internalType": "bytes4",
          "name": "interfaceId",
          "type": "bytes4"
        }
      ],
      "name": "supportsInterface",
      "outputs": [
        {
          "internalType": "bool",
          "name": "",
          "type": "bool"
        }
      ],
      "stateMutability": "view",
      "type": "function"
    },
    {
      "inputs": [
        {
          "internalType": "string",
          "name": "_svg",
          "type": "string"
        }
      ],
      "name": "svgToImageURI",
      "outputs": [
        {
          "internalType": "string",
          "name": "",
          "type": "string"
        }
      ],
      "stateMutability": "pure",
      "type": "function"
    },
    {
      "inputs": [],
      "name": "symbol",
      "outputs": [
        {
          "internalType": "string",
          "name": "",
          "type": "string"
        }
      ],
      "stateMutability": "view",
      "type": "function"
    },
    {
      "inputs": [
        {
          "internalType": "uint256",
          "name": "",
          "type": "uint256"
        }
      ],
      "name": "tokenURI",
      "outputs": [
        {
          "internalType": "string",
          "name": "",
          "type": "string"
        }
      ],
      "stateMutability": "view",
      "type": "function"
    },
    {
      "inputs": [
        {
          "internalType": "address",
          "name": "from",
          "type": "address"
        },
        {
          "internalType": "address",
          "name": "to",
          "type": "address"
        },
        {
          "internalType": "uint256",
          "name": "tokenId",
          "type": "uint256"
        }
      ],
      "name": "transferFrom",
      "outputs": [],
      "stateMutability": "nonpayable",
      "type": "function"
    }
  ],
  "transactionHash": "0xa009ffc10c75540764cd2eefdc0cc04a5ea4c23ac635f274c2e6a3e404d5d939",
  "args": [
    "<svg viewBox=\"0 0 200 200\" width=\"400\"  height=\"400\" xmlns=\"http://www.w3.org/2000/svg\">\r\n  <circle cx=\"100\" cy=\"100\" fill=\"yellow\" r=\"78\" stroke=\"black\" stroke-width=\"3\"/>\r\n  <g class=\"eyes\">\r\n    <circle cx=\"61\" cy=\"82\" r=\"12\"/>\r\n    <circle cx=\"127\" cy=\"82\" r=\"12\"/>\r\n  </g>\r\n  <path d=\"m136.81 116.53c.69 26.17-64.11 42-81.52-.73\" style=\"fill:none; stroke: black; stroke-width: 3;\"/>\r\n</svg>",
    "<?xml version=\"1.0\" standalone=\"no\"?>\r\n<svg width=\"1024px\" height=\"1024px\" viewBox=\"0 0 1024 1024\" xmlns=\"http://www.w3.org/2000/svg\">\r\n  <path fill=\"#333\" d=\"M512 64C264.6 64 64 264.6 64 512s200.6 448 448 448 448-200.6 448-448S759.4 64 512 64zm0 820c-205.4 0-372-166.6-372-372s166.6-372 372-372 372 166.6 372 372-166.6 372-372 372z\"/>\r\n  <path fill=\"#E6E6E6\" d=\"M512 140c-205.4 0-372 166.6-372 372s166.6 372 372 372 372-166.6 372-372-166.6-372-372-372zM288 421a48.01 48.01 0 0 1 96 0 48.01 48.01 0 0 1-96 0zm376 272h-48.1c-4.2 0-7.8-3.2-8.1-7.4C604 636.1 562.5 597 512 597s-92.1 39.1-95.8 88.6c-.3 4.2-3.9 7.4-8.1 7.4H360a8 8 0 0 1-8-8.4c4.4-84.3 74.5-151.6 160-151.6s155.6 67.3 160 151.6a8 8 0 0 1-8 8.4zm24-224a48.01 48.01 0 0 1 0-96 48.01 48.01 0 0 1 0 96z\"/>\r\n  <path fill=\"#333\" d=\"M288 421a48 48 0 1 0 96 0 48 48 0 1 0-96 0zm224 112c-85.5 0-155.6 67.3-160 151.6a8 8 0 0 0 8 8.4h48.1c4.2 0 7.8-3.2 8.1-7.4 3.7-49.5 45.3-88.6 95.8-88.6s92 39.1 95.8 88.6c.3 4.2 3.9 7.4 8.1 7.4H664a8 8 0 0 0 8-8.4C667.6 600.3 597.5 533 512 533zm128-112a48 48 0 1 0 96 0 48 48 0 1 0-96 0z\"/>\r\n</svg>",
    "0x8A753747A1Fa494EC906cE90E9f37563A8AF630e",
    "200000000"
  ],
  "numDeployments": 1,
  "solcInputHash": "cd1de5a80648ec38aff5561c235cbd66",
  "bytecode": "0x60c06040523480156200001157600080fd5b50604051620039cd380380620039cd833981810160405281019062000037919062000514565b6040518060400160405280601081526020017f44796e616d696e6320535647204e4654000000000000000000000000000000008152506040518060400160405280600381526020017f44534e00000000000000000000000000000000000000000000000000000000008152508160009080519060200190620000bb929190620003b8565b508060019080519060200190620000d4929190620003b8565b5050506000600681905550620000f0836200017a60201b60201c565b6007908051906020019062000107929190620003b8565b5062000119846200017a60201b60201c565b6008908051906020019062000130929190620003b8565b508173ffffffffffffffffffffffffffffffffffffffff1660a08173ffffffffffffffffffffffffffffffffffffffff1660601b81525050806080818152505050505050620009a6565b606060006040518060400160405280601a81526020017f646174613a696d6167652f7376672b786d6c3b6261736536342c00000000000081525090506000620001ef84604051602001620001cf9190620005fb565b6040516020818303038152906040526200021e60201b62000efa1760201c565b905081816040516020016200020692919062000614565b60405160208183030381529060405292505050919050565b60606000825114156200024357604051806020016040528060008152509050620003b3565b60006040518060600160405280604081526020016200398d6040913990506000600360028551620002759190620006b1565b6200028191906200070e565b60046200028f919062000746565b90506000602082620002a29190620006b1565b67ffffffffffffffff811115620002be57620002bd6200091e565b5b6040519080825280601f01601f191660200182016040528015620002f15781602001600182028036833780820191505090505b509050818152600183018586518101602084015b818310156200036e576003830192508251603f8160121c1685015160f81b8252600182019150603f81600c1c1685015160f81b8252600182019150603f8160061c1685015160f81b8252600182019150603f811685015160f81b82526001820191505062000305565b6003895106600181146200038b57600281146200039c57620003a7565b613d3d60f01b6002830352620003a7565b603d60f81b60018303525b50505050508093505050505b919050565b828054620003c69062000825565b90600052602060002090601f016020900481019282620003ea576000855562000436565b82601f106200040557805160ff191683800117855562000436565b8280016001018555821562000436579182015b828111156200043557825182559160200191906001019062000418565b5b50905062000445919062000449565b5090565b5b80821115620004645760008160009055506001016200044a565b5090565b60006200047f620004798462000665565b6200063c565b9050828152602081018484840111156200049e576200049d62000952565b5b620004ab848285620007ef565b509392505050565b600081519050620004c48162000972565b92915050565b600081519050620004db816200098c565b92915050565b600082601f830112620004f957620004f86200094d565b5b81516200050b84826020860162000468565b91505092915050565b600080600080608085870312156200053157620005306200095c565b5b600085015167ffffffffffffffff81111562000552576200055162000957565b5b6200056087828801620004e1565b945050602085015167ffffffffffffffff81111562000584576200058362000957565b5b6200059287828801620004e1565b9350506040620005a587828801620004b3565b9250506060620005b887828801620004ca565b91505092959194509250565b6000620005d1826200069b565b620005dd8185620006a6565b9350620005ef818560208601620007ef565b80840191505092915050565b6000620006098284620005c4565b915081905092915050565b6000620006228285620005c4565b9150620006308284620005c4565b91508190509392505050565b6000620006486200065b565b90506200065682826200085b565b919050565b6000604051905090565b600067ffffffffffffffff8211156200068357620006826200091e565b5b6200068e8262000961565b9050602081019050919050565b600081519050919050565b600081905092915050565b6000620006be82620007e5565b9150620006cb83620007e5565b9250827fffffffffffffffffffffffffffffffffffffffffffffffffffffffffffffffff0382111562000703576200070262000891565b5b828201905092915050565b60006200071b82620007e5565b91506200072883620007e5565b9250826200073b576200073a620008c0565b5b828204905092915050565b60006200075382620007e5565b91506200076083620007e5565b9250817fffffffffffffffffffffffffffffffffffffffffffffffffffffffffffffffff04831182151516156200079c576200079b62000891565b5b828202905092915050565b6000620007b482620007c5565b9050919050565b6000819050919050565b600073ffffffffffffffffffffffffffffffffffffffff82169050919050565b6000819050919050565b60005b838110156200080f578082015181840152602081019050620007f2565b838111156200081f576000848401525b50505050565b600060028204905060018216806200083e57607f821691505b60208210811415620008555762000854620008ef565b5b50919050565b620008668262000961565b810181811067ffffffffffffffff821117156200088857620008876200091e565b5b80604052505050565b7f4e487b7100000000000000000000000000000000000000000000000000000000600052601160045260246000fd5b7f4e487b7100000000000000000000000000000000000000000000000000000000600052601260045260246000fd5b7f4e487b7100000000000000000000000000000000000000000000000000000000600052602260045260246000fd5b7f4e487b7100000000000000000000000000000000000000000000000000000000600052604160045260246000fd5b600080fd5b600080fd5b600080fd5b600080fd5b6000601f19601f8301169050919050565b6200097d81620007a7565b81146200098957600080fd5b50565b6200099781620007bb565b8114620009a357600080fd5b50565b60805160a05160601c612fb0620009dd60003960008181610a540152610b86015260008181610a300152610cb90152612fb06000f3fe608060405234801561001057600080fd5b506004361061012c5760003560e01c80636352211e116100ad578063a22cb46511610071578063a22cb46514610333578063b88d4fde1461034f578063c87b56dd1461036b578063e2c6d0e11461039b578063e985e9c5146103b95761012c565b80636352211e1461027957806370a08231146102a95780637e5bc3de146102d9578063957b8956146102f757806395d89b41146103155761012c565b806314f710fe116100f457806314f710fe146101e95780631c05364a146101f357806323b872dd1461021157806330d871c61461022d57806342842e0e1461025d5761012c565b806301ffc9a71461013157806306fdde0314610161578063081812fc1461017f578063095ea7b3146101af5780630b21a83b146101cb575b600080fd5b61014b60048036038101906101469190611ec3565b6103e9565b60405161015891906123d8565b60405180910390f35b6101696104cb565b6040516101769190612429565b60405180910390f35b61019960048036038101906101949190611f66565b61055d565b6040516101a69190612371565b60405180910390f35b6101c960048036038101906101c49190611e83565b6105e2565b005b6101d36106fa565b6040516101e091906125eb565b60405180910390f35b6101f1610700565b005b6101fb610723565b6040516102089190612429565b60405180910390f35b61022b60048036038101906102269190611d6d565b6107b1565b005b61024760048036038101906102429190611f1d565b610811565b6040516102549190612429565b60405180910390f35b61027760048036038101906102729190611d6d565b6108a4565b005b610293600480360381019061028e9190611f66565b6108c4565b6040516102a09190612371565b60405180910390f35b6102c360048036038101906102be9190611d00565b610976565b6040516102d091906125eb565b60405180910390f35b6102e1610a2e565b6040516102ee919061240e565b60405180910390f35b6102ff610a52565b60405161030c91906123f3565b60405180910390f35b61031d610a76565b60405161032a9190612429565b60405180910390f35b61034d60048036038101906103489190611e43565b610b08565b005b61036960048036038101906103649190611dc0565b610b1e565b005b61038560048036038101906103809190611f66565b610b80565b6040516103929190612429565b60405180910390f35b6103a3610dd8565b6040516103b09190612429565b60405180910390f35b6103d360048036038101906103ce9190611d2d565b610e66565b6040516103e091906123d8565b60405180910390f35b60007f80ac58cd000000000000000000000000000000000000000000000000000000007bffffffffffffffffffffffffffffffffffffffffffffffffffffffff1916827bffffffffffffffffffffffffffffffffffffffffffffffffffffffff191614806104b457507f5b5e139f000000000000000000000000000000000000000000000000000000007bffffffffffffffffffffffffffffffffffffffffffffffffffffffff1916827bffffffffffffffffffffffffffffffffffffffffffffffffffffffff1916145b806104c457506104c38261107f565b5b9050919050565b6060600080546104da906128f1565b80601f0160208091040260200160405190810160405280929190818152602001828054610506906128f1565b80156105535780601f1061052857610100808354040283529160200191610553565b820191906000526020600020905b81548152906001019060200180831161053657829003601f168201915b5050505050905090565b6000610568826110e9565b6105a7576040517f08c379a000000000000000000000000000000000000000000000000000000000815260040161059e9061258b565b60405180910390fd5b6004600083815260200190815260200160002060009054906101000a900473ffffffffffffffffffffffffffffffffffffffff169050919050565b60006105ed826108c4565b90508073ffffffffffffffffffffffffffffffffffffffff168373ffffffffffffffffffffffffffffffffffffffff16141561065e576040517f08c379a0000000000000000000000000000000000000000000000000000000008152600401610655906125ab565b60405180910390fd5b8073ffffffffffffffffffffffffffffffffffffffff1661067d611155565b73ffffffffffffffffffffffffffffffffffffffff1614806106ac57506106ab816106a6611155565b610e66565b5b6106eb576040517f08c379a00000000000000000000000000000000000000000000000000000000081526004016106e29061250b565b60405180910390fd5b6106f5838361115d565b505050565b60065481565b61070c33600654611216565b600160065461071b91906126d0565b600681905550565b60088054610730906128f1565b80601f016020809104026020016040519081016040528092919081815260200182805461075c906128f1565b80156107a95780601f1061077e576101008083540402835291602001916107a9565b820191906000526020600020905b81548152906001019060200180831161078c57829003601f168201915b505050505081565b6107c26107bc611155565b82611234565b610801576040517f08c379a00000000000000000000000000000000000000000000000000000000081526004016107f8906125cb565b60405180910390fd5b61080c838383611312565b505050565b606060006040518060400160405280601a81526020017f646174613a696d6167652f7376672b786d6c3b6261736536342c00000000000081525090506000610877846040516020016108639190612309565b604051602081830303815290604052610efa565b9050818160405160200161088c929190612320565b60405160208183030381529060405292505050919050565b6108bf83838360405180602001604052806000815250610b1e565b505050565b6000806002600084815260200190815260200160002060009054906101000a900473ffffffffffffffffffffffffffffffffffffffff169050600073ffffffffffffffffffffffffffffffffffffffff168173ffffffffffffffffffffffffffffffffffffffff16141561096d576040517f08c379a00000000000000000000000000000000000000000000000000000000081526004016109649061254b565b60405180910390fd5b80915050919050565b60008073ffffffffffffffffffffffffffffffffffffffff168273ffffffffffffffffffffffffffffffffffffffff1614156109e7576040517f08c379a00000000000000000000000000000000000000000000000000000000081526004016109de9061252b565b60405180910390fd5b600360008373ffffffffffffffffffffffffffffffffffffffff1673ffffffffffffffffffffffffffffffffffffffff168152602001908152602001600020549050919050565b7f000000000000000000000000000000000000000000000000000000000000000081565b7f000000000000000000000000000000000000000000000000000000000000000081565b606060018054610a85906128f1565b80601f0160208091040260200160405190810160405280929190818152602001828054610ab1906128f1565b8015610afe5780601f10610ad357610100808354040283529160200191610afe565b820191906000526020600020905b815481529060010190602001808311610ae157829003601f168201915b5050505050905090565b610b1a610b13611155565b8383611579565b5050565b610b2f610b29611155565b83611234565b610b6e576040517f08c379a0000000000000000000000000000000000000000000000000000000008152600401610b65906125cb565b60405180910390fd5b610b7a848484846116e6565b50505050565b606060007f000000000000000000000000000000000000000000000000000000000000000073ffffffffffffffffffffffffffffffffffffffff1663feaf968c6040518163ffffffff1660e01b815260040160a06040518083038186803b158015610bea57600080fd5b505afa158015610bfe573d6000803e3d6000fd5b505050506040513d601f19601f82011682018060405250810190610c229190611f93565b505050915050600060078054610c37906128f1565b80601f0160208091040260200160405190810160405280929190818152602001828054610c63906128f1565b8015610cb05780601f10610c8557610100808354040283529160200191610cb0565b820191906000526020600020905b815481529060010190602001808311610c9357829003601f168201915b505050505090507f0000000000000000000000000000000000000000000000000000000000000000821315610d6d5760088054610cec906128f1565b80601f0160208091040260200160405190810160405280929190818152602001828054610d18906128f1565b8015610d655780601f10610d3a57610100808354040283529160200191610d65565b820191906000526020600020905b815481529060010190602001808311610d4857829003601f168201915b505050505090505b600081604051602001610d809190612344565b604051602081830303815290604052905060008190506000610da182610efa565b9050610dab611742565b81604051602001610dbd929190612320565b60405160208183030381529060405295505050505050919050565b60078054610de5906128f1565b80601f0160208091040260200160405190810160405280929190818152602001828054610e11906128f1565b8015610e5e5780601f10610e3357610100808354040283529160200191610e5e565b820191906000526020600020905b815481529060010190602001808311610e4157829003601f168201915b505050505081565b6000600560008473ffffffffffffffffffffffffffffffffffffffff1673ffffffffffffffffffffffffffffffffffffffff16815260200190815260200160002060008373ffffffffffffffffffffffffffffffffffffffff1673ffffffffffffffffffffffffffffffffffffffff16815260200190815260200160002060009054906101000a900460ff16905092915050565b6060600082511415610f1d5760405180602001604052806000815250905061107a565b6000604051806060016040528060408152602001612f3b6040913990506000600360028551610f4c91906126d0565b610f569190612726565b6004610f629190612757565b90506000602082610f7391906126d0565b67ffffffffffffffff811115610f8c57610f8b6129e1565b5b6040519080825280601f01601f191660200182016040528015610fbe5781602001600182028036833780820191505090505b509050818152600183018586518101602084015b81831015611039576003830192508251603f8160121c1685015160f81b8252600182019150603f81600c1c1685015160f81b8252600182019150603f8160061c1685015160f81b8252600182019150603f811685015160f81b825260018201915050610fd2565b60038951066001811461105357600281146110635761106e565b613d3d60f01b600283035261106e565b603d60f81b60018303525b50505050508093505050505b919050565b60007f01ffc9a7000000000000000000000000000000000000000000000000000000007bffffffffffffffffffffffffffffffffffffffffffffffffffffffff1916827bffffffffffffffffffffffffffffffffffffffffffffffffffffffff1916149050919050565b60008073ffffffffffffffffffffffffffffffffffffffff166002600084815260200190815260200160002060009054906101000a900473ffffffffffffffffffffffffffffffffffffffff1673ffffffffffffffffffffffffffffffffffffffff1614159050919050565b600033905090565b816004600083815260200190815260200160002060006101000a81548173ffffffffffffffffffffffffffffffffffffffff021916908373ffffffffffffffffffffffffffffffffffffffff160217905550808273ffffffffffffffffffffffffffffffffffffffff166111d0836108c4565b73ffffffffffffffffffffffffffffffffffffffff167f8c5be1e5ebec7d5bd14f71427d1e84f3dd0314c0f7b2291e5b200ac8c7c3b92560405160405180910390a45050565b61123082826040518060200160405280600081525061177f565b5050565b600061123f826110e9565b61127e576040517f08c379a0000000000000000000000000000000000000000000000000000000008152600401611275906124eb565b60405180910390fd5b6000611289836108c4565b90508073ffffffffffffffffffffffffffffffffffffffff168473ffffffffffffffffffffffffffffffffffffffff1614806112cb57506112ca8185610e66565b5b8061130957508373ffffffffffffffffffffffffffffffffffffffff166112f18461055d565b73ffffffffffffffffffffffffffffffffffffffff16145b91505092915050565b8273ffffffffffffffffffffffffffffffffffffffff16611332826108c4565b73ffffffffffffffffffffffffffffffffffffffff1614611388576040517f08c379a000000000000000000000000000000000000000000000000000000000815260040161137f9061246b565b60405180910390fd5b600073ffffffffffffffffffffffffffffffffffffffff168273ffffffffffffffffffffffffffffffffffffffff1614156113f8576040517f08c379a00000000000000000000000000000000000000000000000000000000081526004016113ef906124ab565b60405180910390fd5b6114038383836117da565b61140e60008261115d565b6001600360008573ffffffffffffffffffffffffffffffffffffffff1673ffffffffffffffffffffffffffffffffffffffff168152602001908152602001600020600082825461145e91906127b1565b925050819055506001600360008473ffffffffffffffffffffffffffffffffffffffff1673ffffffffffffffffffffffffffffffffffffffff16815260200190815260200160002060008282546114b591906126d0565b92505081905550816002600083815260200190815260200160002060006101000a81548173ffffffffffffffffffffffffffffffffffffffff021916908373ffffffffffffffffffffffffffffffffffffffff160217905550808273ffffffffffffffffffffffffffffffffffffffff168473ffffffffffffffffffffffffffffffffffffffff167fddf252ad1be2c89b69c2b068fc378daa952ba7f163c4a11628f55a4df523b3ef60405160405180910390a46115748383836117df565b505050565b8173ffffffffffffffffffffffffffffffffffffffff168373ffffffffffffffffffffffffffffffffffffffff1614156115e8576040517f08c379a00000000000000000000000000000000000000000000000000000000081526004016115df906124cb565b60405180910390fd5b80600560008573ffffffffffffffffffffffffffffffffffffffff1673ffffffffffffffffffffffffffffffffffffffff16815260200190815260200160002060008473ffffffffffffffffffffffffffffffffffffffff1673ffffffffffffffffffffffffffffffffffffffff16815260200190815260200160002060006101000a81548160ff0219169083151502179055508173ffffffffffffffffffffffffffffffffffffffff168373ffffffffffffffffffffffffffffffffffffffff167f17307eab39ab6107e8899845ad3d59bd9653f200f220920489ca2b5937696c31836040516116d991906123d8565b60405180910390a3505050565b6116f1848484611312565b6116fd848484846117e4565b61173c576040517f08c379a00000000000000000000000000000000000000000000000000000000081526004016117339061244b565b60405180910390fd5b50505050565b60606040518060400160405280601d81526020017f646174613a6170706c69636174696f6e2f6a736f6e3b6261736536342c000000815250905090565b611789838361197b565b61179660008484846117e4565b6117d5576040517f08c379a00000000000000000000000000000000000000000000000000000000081526004016117cc9061244b565b60405180910390fd5b505050565b505050565b505050565b60006118058473ffffffffffffffffffffffffffffffffffffffff16611b55565b1561196e578373ffffffffffffffffffffffffffffffffffffffff1663150b7a0261182e611155565b8786866040518563ffffffff1660e01b8152600401611850949392919061238c565b602060405180830381600087803b15801561186a57600080fd5b505af192505050801561189b57506040513d601f19601f820116820180604052508101906118989190611ef0565b60015b61191e573d80600081146118cb576040519150601f19603f3d011682016040523d82523d6000602084013e6118d0565b606091505b50600081511415611916576040517f08c379a000000000000000000000000000000000000000000000000000000000815260040161190d9061244b565b60405180910390fd5b805181602001fd5b63150b7a0260e01b7bffffffffffffffffffffffffffffffffffffffffffffffffffffffff1916817bffffffffffffffffffffffffffffffffffffffffffffffffffffffff191614915050611973565b600190505b949350505050565b600073ffffffffffffffffffffffffffffffffffffffff168273ffffffffffffffffffffffffffffffffffffffff1614156119eb576040517f08c379a00000000000000000000000000000000000000000000000000000000081526004016119e29061256b565b60405180910390fd5b6119f4816110e9565b15611a34576040517f08c379a0000000000000000000000000000000000000000000000000000000008152600401611a2b9061248b565b60405180910390fd5b611a40600083836117da565b6001600360008473ffffffffffffffffffffffffffffffffffffffff1673ffffffffffffffffffffffffffffffffffffffff1681526020019081526020016000206000828254611a9091906126d0565b92505081905550816002600083815260200190815260200160002060006101000a81548173ffffffffffffffffffffffffffffffffffffffff021916908373ffffffffffffffffffffffffffffffffffffffff160217905550808273ffffffffffffffffffffffffffffffffffffffff16600073ffffffffffffffffffffffffffffffffffffffff167fddf252ad1be2c89b69c2b068fc378daa952ba7f163c4a11628f55a4df523b3ef60405160405180910390a4611b51600083836117df565b5050565b6000808273ffffffffffffffffffffffffffffffffffffffff163b119050919050565b6000611b8b611b868461262b565b612606565b905082815260208101848484011115611ba757611ba6612a15565b5b611bb28482856128af565b509392505050565b6000611bcd611bc88461265c565b612606565b905082815260208101848484011115611be957611be8612a15565b5b611bf48482856128af565b509392505050565b600081359050611c0b81612eb0565b92915050565b600081359050611c2081612ec7565b92915050565b600081359050611c3581612ede565b92915050565b600081519050611c4a81612ede565b92915050565b600082601f830112611c6557611c64612a10565b5b8135611c75848260208601611b78565b91505092915050565b600081519050611c8d81612ef5565b92915050565b600082601f830112611ca857611ca7612a10565b5b8135611cb8848260208601611bba565b91505092915050565b600081359050611cd081612f0c565b92915050565b600081519050611ce581612f0c565b92915050565b600081519050611cfa81612f23565b92915050565b600060208284031215611d1657611d15612a1f565b5b6000611d2484828501611bfc565b91505092915050565b60008060408385031215611d4457611d43612a1f565b5b6000611d5285828601611bfc565b9250506020611d6385828601611bfc565b9150509250929050565b600080600060608486031215611d8657611d85612a1f565b5b6000611d9486828701611bfc565b9350506020611da586828701611bfc565b9250506040611db686828701611cc1565b9150509250925092565b60008060008060808587031215611dda57611dd9612a1f565b5b6000611de887828801611bfc565b9450506020611df987828801611bfc565b9350506040611e0a87828801611cc1565b925050606085013567ffffffffffffffff811115611e2b57611e2a612a1a565b5b611e3787828801611c50565b91505092959194509250565b60008060408385031215611e5a57611e59612a1f565b5b6000611e6885828601611bfc565b9250506020611e7985828601611c11565b9150509250929050565b60008060408385031215611e9a57611e99612a1f565b5b6000611ea885828601611bfc565b9250506020611eb985828601611cc1565b9150509250929050565b600060208284031215611ed957611ed8612a1f565b5b6000611ee784828501611c26565b91505092915050565b600060208284031215611f0657611f05612a1f565b5b6000611f1484828501611c3b565b91505092915050565b600060208284031215611f3357611f32612a1f565b5b600082013567ffffffffffffffff811115611f5157611f50612a1a565b5b611f5d84828501611c93565b91505092915050565b600060208284031215611f7c57611f7b612a1f565b5b6000611f8a84828501611cc1565b91505092915050565b600080600080600060a08688031215611faf57611fae612a1f565b5b6000611fbd88828901611ceb565b9550506020611fce88828901611c7e565b9450506040611fdf88828901611cd6565b9350506060611ff088828901611cd6565b925050608061200188828901611ceb565b9150509295509295909350565b612017816127e5565b82525050565b612026816127f7565b82525050565b60006120378261268d565b61204181856126a3565b93506120518185602086016128be565b61205a81612a24565b840191505092915050565b61206e81612879565b82525050565b61207d8161282f565b82525050565b600061208e82612698565b61209881856126b4565b93506120a88185602086016128be565b6120b181612a24565b840191505092915050565b60006120c782612698565b6120d181856126c5565b93506120e18185602086016128be565b80840191505092915050565b60006120fa6032836126b4565b915061210582612a35565b604082019050919050565b600061211d6025836126b4565b915061212882612a84565b604082019050919050565b6000612140601c836126b4565b915061214b82612ad3565b602082019050919050565b60006121636024836126b4565b915061216e82612afc565b604082019050919050565b60006121866019836126b4565b915061219182612b4b565b602082019050919050565b60006121a9602c836126b4565b91506121b482612b74565b604082019050919050565b60006121cc6038836126b4565b91506121d782612bc3565b604082019050919050565b60006121ef602a836126b4565b91506121fa82612c12565b604082019050919050565b60006122126029836126b4565b915061221d82612c61565b604082019050919050565b60006122356002836126c5565b915061224082612cb0565b600282019050919050565b6000612258609c836126c5565b915061226382612cd9565b609c82019050919050565b600061227b6020836126b4565b915061228682612d9a565b602082019050919050565b600061229e602c836126b4565b91506122a982612dc3565b604082019050919050565b60006122c16021836126b4565b91506122cc82612e12565b604082019050919050565b60006122e46031836126b4565b91506122ef82612e61565b604082019050919050565b61230381612859565b82525050565b600061231582846120bc565b915081905092915050565b600061232c82856120bc565b915061233882846120bc565b91508190509392505050565b600061234f8261224b565b915061235b82846120bc565b915061236682612228565b915081905092915050565b6000602082019050612386600083018461200e565b92915050565b60006080820190506123a1600083018761200e565b6123ae602083018661200e565b6123bb60408301856122fa565b81810360608301526123cd818461202c565b905095945050505050565b60006020820190506123ed600083018461201d565b92915050565b60006020820190506124086000830184612065565b92915050565b60006020820190506124236000830184612074565b92915050565b600060208201905081810360008301526124438184612083565b905092915050565b60006020820190508181036000830152612464816120ed565b9050919050565b6000602082019050818103600083015261248481612110565b9050919050565b600060208201905081810360008301526124a481612133565b9050919050565b600060208201905081810360008301526124c481612156565b9050919050565b600060208201905081810360008301526124e481612179565b9050919050565b600060208201905081810360008301526125048161219c565b9050919050565b60006020820190508181036000830152612524816121bf565b9050919050565b60006020820190508181036000830152612544816121e2565b9050919050565b6000602082019050818103600083015261256481612205565b9050919050565b600060208201905081810360008301526125848161226e565b9050919050565b600060208201905081810360008301526125a481612291565b9050919050565b600060208201905081810360008301526125c4816122b4565b9050919050565b600060208201905081810360008301526125e4816122d7565b9050919050565b600060208201905061260060008301846122fa565b92915050565b6000612610612621565b905061261c8282612923565b919050565b6000604051905090565b600067ffffffffffffffff821115612646576126456129e1565b5b61264f82612a24565b9050602081019050919050565b600067ffffffffffffffff821115612677576126766129e1565b5b61268082612a24565b9050602081019050919050565b600081519050919050565b600081519050919050565b600082825260208201905092915050565b600082825260208201905092915050565b600081905092915050565b60006126db82612859565b91506126e683612859565b9250827fffffffffffffffffffffffffffffffffffffffffffffffffffffffffffffffff0382111561271b5761271a612954565b5b828201905092915050565b600061273182612859565b915061273c83612859565b92508261274c5761274b612983565b5b828204905092915050565b600061276282612859565b915061276d83612859565b9250817fffffffffffffffffffffffffffffffffffffffffffffffffffffffffffffffff04831182151516156127a6576127a5612954565b5b828202905092915050565b60006127bc82612859565b91506127c783612859565b9250828210156127da576127d9612954565b5b828203905092915050565b60006127f082612839565b9050919050565b60008115159050919050565b60007fffffffff0000000000000000000000000000000000000000000000000000000082169050919050565b6000819050919050565b600073ffffffffffffffffffffffffffffffffffffffff82169050919050565b6000819050919050565b600069ffffffffffffffffffff82169050919050565b60006128848261288b565b9050919050565b60006128968261289d565b9050919050565b60006128a882612839565b9050919050565b82818337600083830152505050565b60005b838110156128dc5780820151818401526020810190506128c1565b838111156128eb576000848401525b50505050565b6000600282049050600182168061290957607f821691505b6020821081141561291d5761291c6129b2565b5b50919050565b61292c82612a24565b810181811067ffffffffffffffff8211171561294b5761294a6129e1565b5b80604052505050565b7f4e487b7100000000000000000000000000000000000000000000000000000000600052601160045260246000fd5b7f4e487b7100000000000000000000000000000000000000000000000000000000600052601260045260246000fd5b7f4e487b7100000000000000000000000000000000000000000000000000000000600052602260045260246000fd5b7f4e487b7100000000000000000000000000000000000000000000000000000000600052604160045260246000fd5b600080fd5b600080fd5b600080fd5b600080fd5b6000601f19601f8301169050919050565b7f4552433732313a207472616e7366657220746f206e6f6e20455243373231526560008201527f63656976657220696d706c656d656e7465720000000000000000000000000000602082015250565b7f4552433732313a207472616e736665722066726f6d20696e636f72726563742060008201527f6f776e6572000000000000000000000000000000000000000000000000000000602082015250565b7f4552433732313a20746f6b656e20616c7265616479206d696e74656400000000600082015250565b7f4552433732313a207472616e7366657220746f20746865207a65726f2061646460008201527f7265737300000000000000000000000000000000000000000000000000000000602082015250565b7f4552433732313a20617070726f766520746f2063616c6c657200000000000000600082015250565b7f4552433732313a206f70657261746f7220717565727920666f72206e6f6e657860008201527f697374656e7420746f6b656e0000000000000000000000000000000000000000602082015250565b7f4552433732313a20617070726f76652063616c6c6572206973206e6f74206f7760008201527f6e6572206e6f7220617070726f76656420666f7220616c6c0000000000000000602082015250565b7f4552433732313a2062616c616e636520717565727920666f7220746865207a6560008201527f726f206164647265737300000000000000000000000000000000000000000000602082015250565b7f4552433732313a206f776e657220717565727920666f72206e6f6e657869737460008201527f656e7420746f6b656e0000000000000000000000000000000000000000000000602082015250565b7f227d000000000000000000000000000000000000000000000000000000000000600082015250565b7f7b226e616d65223a202244796e616d696320535647222c20226465736372697060008201527f74696f6e223a22416e204e46542074686174206368616e67657320626173656460208201527f206f6e2074686520436861696e6c696e6b2046656564222c202261747472696260408201527f75746573223a205b7b2274726169745f74797065223a2022636f6f6c6e65737360608201527f222c202276616c7565223a203130307d5d2c2022696d616765223a2200000000608082015250565b7f4552433732313a206d696e7420746f20746865207a65726f2061646472657373600082015250565b7f4552433732313a20617070726f76656420717565727920666f72206e6f6e657860008201527f697374656e7420746f6b656e0000000000000000000000000000000000000000602082015250565b7f4552433732313a20617070726f76616c20746f2063757272656e74206f776e6560008201527f7200000000000000000000000000000000000000000000000000000000000000602082015250565b7f4552433732313a207472616e736665722063616c6c6572206973206e6f74206f60008201527f776e6572206e6f7220617070726f766564000000000000000000000000000000602082015250565b612eb9816127e5565b8114612ec457600080fd5b50565b612ed0816127f7565b8114612edb57600080fd5b50565b612ee781612803565b8114612ef257600080fd5b50565b612efe8161282f565b8114612f0957600080fd5b50565b612f1581612859565b8114612f2057600080fd5b50565b612f2c81612863565b8114612f3757600080fd5b5056fe4142434445464748494a4b4c4d4e4f505152535455565758595a6162636465666768696a6b6c6d6e6f707172737475767778797a303132333435363738392b2fa264697066735822122080a984cb12be88385b8ebc1427bfbc43c86015c31cbca0532b6607bc4a867ccb64736f6c634300080700334142434445464748494a4b4c4d4e4f505152535455565758595a6162636465666768696a6b6c6d6e6f707172737475767778797a303132333435363738392b2f",
  "devdoc": {
    "kind": "dev",
    "methods": {
      "approve(address,uint256)": {
        "details": "See {IERC721-approve}."
      },
      "balanceOf(address)": {
        "details": "See {IERC721-balanceOf}."
      },
      "getApproved(uint256)": {
        "details": "See {IERC721-getApproved}."
      },
      "isApprovedForAll(address,address)": {
        "details": "See {IERC721-isApprovedForAll}."
      },
      "name()": {
        "details": "See {IERC721Metadata-name}."
      },
      "ownerOf(uint256)": {
        "details": "See {IERC721-ownerOf}."
      },
      "safeTransferFrom(address,address,uint256)": {
        "details": "See {IERC721-safeTransferFrom}."
      },
      "safeTransferFrom(address,address,uint256,bytes)": {
        "details": "See {IERC721-safeTransferFrom}."
      },
      "setApprovalForAll(address,bool)": {
        "details": "See {IERC721-setApprovalForAll}."
      },
      "supportsInterface(bytes4)": {
        "details": "See {IERC165-supportsInterface}."
      },
      "symbol()": {
        "details": "See {IERC721Metadata-symbol}."
      },
      "transferFrom(address,address,uint256)": {
        "details": "See {IERC721-transferFrom}."
      }
    },
    "version": 1
  },
  "userdoc": {
    "kind": "user",
    "methods": {},
    "version": 1
  },
  "storageLayout": {
    "storage": [
      {
        "astId": 71,
        "contract": "contracts/DynamicSvgNft.sol:DynamicSvgNft",
        "label": "_name",
        "offset": 0,
        "slot": "0",
        "type": "t_string_storage"
      },
      {
        "astId": 73,
        "contract": "contracts/DynamicSvgNft.sol:DynamicSvgNft",
        "label": "_symbol",
        "offset": 0,
        "slot": "1",
        "type": "t_string_storage"
      },
      {
        "astId": 77,
        "contract": "contracts/DynamicSvgNft.sol:DynamicSvgNft",
        "label": "_owners",
        "offset": 0,
        "slot": "2",
        "type": "t_mapping(t_uint256,t_address)"
      },
      {
        "astId": 81,
        "contract": "contracts/DynamicSvgNft.sol:DynamicSvgNft",
        "label": "_balances",
        "offset": 0,
        "slot": "3",
        "type": "t_mapping(t_address,t_uint256)"
      },
      {
        "astId": 85,
        "contract": "contracts/DynamicSvgNft.sol:DynamicSvgNft",
        "label": "_tokenApprovals",
        "offset": 0,
        "slot": "4",
        "type": "t_mapping(t_uint256,t_address)"
      },
      {
        "astId": 91,
        "contract": "contracts/DynamicSvgNft.sol:DynamicSvgNft",
        "label": "_operatorApprovals",
        "offset": 0,
        "slot": "5",
        "type": "t_mapping(t_address,t_mapping(t_address,t_bool))"
      },
      {
        "astId": 1688,
        "contract": "contracts/DynamicSvgNft.sol:DynamicSvgNft",
        "label": "s_tokenCounter",
        "offset": 0,
        "slot": "6",
        "type": "t_uint256"
      },
      {
        "astId": 1690,
        "contract": "contracts/DynamicSvgNft.sol:DynamicSvgNft",
        "label": "s_lowImageURI",
        "offset": 0,
        "slot": "7",
        "type": "t_string_storage"
      },
      {
        "astId": 1692,
        "contract": "contracts/DynamicSvgNft.sol:DynamicSvgNft",
        "label": "s_highImageURI",
        "offset": 0,
        "slot": "8",
        "type": "t_string_storage"
      }
    ],
    "types": {
      "t_address": {
        "encoding": "inplace",
        "label": "address",
        "numberOfBytes": "20"
      },
      "t_bool": {
        "encoding": "inplace",
        "label": "bool",
        "numberOfBytes": "1"
      },
      "t_mapping(t_address,t_bool)": {
        "encoding": "mapping",
        "key": "t_address",
        "label": "mapping(address => bool)",
        "numberOfBytes": "32",
        "value": "t_bool"
      },
      "t_mapping(t_address,t_mapping(t_address,t_bool))": {
        "encoding": "mapping",
        "key": "t_address",
        "label": "mapping(address => mapping(address => bool))",
        "numberOfBytes": "32",
        "value": "t_mapping(t_address,t_bool)"
      },
      "t_mapping(t_address,t_uint256)": {
        "encoding": "mapping",
        "key": "t_address",
        "label": "mapping(address => uint256)",
        "numberOfBytes": "32",
        "value": "t_uint256"
      },
      "t_mapping(t_uint256,t_address)": {
        "encoding": "mapping",
        "key": "t_uint256",
        "label": "mapping(uint256 => address)",
        "numberOfBytes": "32",
        "value": "t_address"
      },
      "t_string_storage": {
        "encoding": "bytes",
        "label": "string",
        "numberOfBytes": "32"
      },
      "t_uint256": {
        "encoding": "inplace",
        "label": "uint256",
        "numberOfBytes": "32"
      }
    }
  }
}